:020000040800F2
:1060000000FC002039A10008B5A1000841A2000849
:10601000ADA20008AFA20008B1A200080000000075
:10602000000000000000000000000000B3A2000813
:10603000B5A2000800000000B7A20008B7A200083F
:1060400089A1000889A10008D5A2000889A100083B
:1060500089A1000889A100082BA3000831A300082A
:1060600037A300083DA3000843A30008E1A20008ED
:10607000EDA20008F9A2000805A3000889A1000804
:1060800089A1000889A1000889A1000889A1000848
:1060900089A1000889A1000849A3000889A1000876
:1060A00089A1000889A1000889A1000889A1000828
:1060B00089A1000889A1000889A1000889A1000818
:1060C000F5A3000801A4000889A1000889A100081F
:1060D00011A3000829A30008DDA3000889A1000876
:1060E00089A1000889A30008BDA2000889A10008B1
:1060F00089A1000889A1000889A1000889A10008D8
:1061000089A1000889A10008C9A200080DA40008FF
:1061100089A1000889A1000889A1000889A10008B7
:1061200089A1000889A1000889A1000889A10008A7
:0861300089A1000889A1000803
:1061400010B5054C237833B9044B13B10448AFF3B1
:1061500000800123237010BD480E002000000000C5
:1061600048AE020808B5034B1BB103490348AFF31F
:10617000008008BD000000004C0E002048AE020860
:10618000034613F8012B002AFBD1181A0138704777
:1061900001F0FF01102A2BDB10F0070F08D010F8D8
:1061A000013B013A8B422DD010F0070F42B3F6D1DC
:1061B000F0B441EA012141EA014122F007047FF0F5
:1061C00000070023F0E80256083C85EA010586EA4C
:1061D000010685FA47F5A3FA87F586FA47F6A5FA88
:1061E00087F68EB9EED1F0BC01F0FF0102F0070294
:1061F00032B110F8013B013A83EA010313B1F8D13F
:106200000020704701387047002D06BF354603381F
:10621000073815F0010F07D1013015F4807F02BF58
:10622000013015F4C03F0130F0BC0138704700BFA9
:1062300010F8012B11F8013B012A28BF9A42F7D030
:10624000D01A704781F0004102E000BF83F00043A4
:1062500030B54FEA41044FEA430594EA050F08BF01
:1062600090EA020F1FBF54EA000C55EA020C7FEAC5
:10627000645C7FEA655C00F0E2804FEA5454D4EB42
:106280005555B8BF6D420CDD2C4480EA020281EA0C
:10629000030382EA000083EA010180EA020281EA44
:1062A0000303362D88BF30BD11F0004F4FEA013196
:1062B0004FF4801C4CEA113102D0404261EB4101A5
:1062C00013F0004F4FEA03334CEA133302D052422B
:1062D00063EB430394EA050F00F0A780A4F10104E7
:1062E000D5F1200E0DDB02FA0EFC22FA05F2801821
:1062F00041F1000103FA0EF2801843FA05F3594107
:106300000EE0A5F120050EF1200E012A03FA0EFC85
:1063100028BF4CF0020C43FA05F3C01851EBE371AF
:1063200001F0004507D54FF0000EDCF1000C7EEBCC
:1063300000006EEB0101B1F5801F1BD3B1F5001F0A
:106340000CD349085FEA30004FEA3C0C04F1010429
:106350004FEA445212F5800F80F09A80BCF1004F52
:1063600008BF5FEA500C50F1000041EB045141EAD4
:10637000050130BD5FEA4C0C404141EB0101013C9D
:1063800028BFB1F5801FE9D291F0000F04BF01468C
:106390000020B1FA81F308BF2033A3F10B03B3F15E
:1063A00020020CDA0C3208DD02F1140CC2F10C02EE
:1063B00001FA0CF021FA02F10CE002F11402D8BF4C
:1063C000C2F1200C01FA02F120FA0CFCDCBF41EA18
:1063D0000C019040E41AA2BF01EB0451294330BDE7
:1063E0006FEA04041F3C1CDA0C340EDC04F11404C4
:1063F000C4F1200220FA04F001FA02F340EA03009B
:1064000021FA04F345EA030130BDC4F10C04C4F1E0
:10641000200220FA02F001FA04F340EA03002946C0
:1064200030BD21FA04F0294630BD94F0000F83F40A
:10643000801306BF81F480110134013D4EE77FEAED
:10644000645C18BF7FEA655C29D094EA050F08BF39
:1064500090EA020F05D054EA000C04BF194610461A
:1064600030BD91EA030F1EBF0021002030BD5FEA5E
:10647000545C05D14000494128BF41F0004130BD86
:1064800014F580043CBF01F5801130BD01F00045DA
:1064900045F0FE4141F470014FF0000030BD7FEA4D
:1064A000645C1ABF194610467FEA655C1CBF0B4648
:1064B000024650EA013406BF52EA033591EA030F5F
:1064C00041F4002130BD00BF90F0000F04BF002157
:1064D000704730B54FF4806404F132044FF000058A
:1064E0004FF0000150E700BF90F0000F04BF002103
:1064F000704730B54FF4806404F1320410F0004569
:1065000048BF40424FF000013EE700BF42004FEA63
:10651000E2014FEA31014FEA02701FBF12F07F43E0
:1065200093F07F4F81F06051704732F07F4208BF97
:10653000704793F07F4F04BF41F40021704730B59E
:106540004FF4607401F0004521F000411CE700BFEA
:1065500050EA010208BF704730B54FF000050AE06D
:1065600050EA010208BF704730B511F0004502D56E
:10657000404261EB41014FF4806404F132045FEA70
:10658000915C3FF4D8AE4FF003025FEADC0C18BF19
:1065900003325FEADC0C18BF033202EBDC02C2F10B
:1065A000200300FA03FC20FA02F001FA03FE40EA9D
:1065B0000E0021FA02F11444BDE600BF70B54FF0A1
:1065C000FF0C4CF4E06C1CEA11541DBF1CEA13557F
:1065D00094EA0C0F95EA0C0F00F0DEF82C4481EAE7
:1065E000030621EA4C5123EA4C5350EA013518BF07
:1065F00052EA033541F4801143F4801338D0A0FBF4
:1066000002CE4FF00005E1FB02E506F00042E0FBA0
:1066100003E54FF00006E1FB03569CF0000F18BFA6
:106620004EF0010EA4F1FF04B6F5007F64F540744E
:1066300004D25FEA4E0E6D4146EB060642EAC621E1
:1066400041EA55514FEAC52040EA5E504FEACE2E4E
:10665000B4F1FD0C88BFBCF5E06F1ED8BEF1004F51
:1066600008BF5FEA500E50F1000041EB045170BDCD
:1066700006F0004646EA010140EA020081EA030111
:10668000B4EB5C04C2BFD4EB0C0541EA045170BD0D
:1066900041F480114FF0000E013C00F3AB8014F187
:1066A000360FDEBF002001F0004170BDC4F10004D0
:1066B000203C35DA0C341BDC04F11404C4F1200551
:1066C00000FA05F320FA04F001FA05F240EA0200AC
:1066D00001F0004221F0004110EBD37021FA04F6E2
:1066E00042EB06015EEA430E08BF20EAD37070BD9C
:1066F000C4F10C04C4F1200500FA04F320FA05F0FB
:1067000001FA04F240EA020001F0004110EBD370FC
:1067100041F100015EEA430E08BF20EAD37070BD6C
:10672000C4F1200500FA05F24EEA020E20FA04F345
:1067300001FA05F243EA020321FA04F001F00041F4
:1067400021FA04F220EA020000EBD3705EEA430E65
:1067500008BF20EAD37070BD94F0000F0FD101F094
:106760000046400041EB010111F4801F08BF013CCD
:10677000F7D041EA060195F0000F18BF704703F00B
:106780000046520043EB030313F4801F08BF013D92
:10679000F7D043EA0603704794EA0C0F0CEA13554E
:1067A00018BF95EA0C0F0CD050EA410618BF52EA08
:1067B0004306D1D181EA030101F000414FF000000E
:1067C00070BD50EA410606BF1046194652EA43061C
:1067D00019D094EA0C0F02D150EA013613D195EA90
:1067E0000C0F05D152EA03361CBF104619460AD1D8
:1067F00081EA030101F0004141F0FE4141F47001E2
:106800004FF0000070BD41F0FE4141F4780170BDD1
:1068100070B54FF0FF0C4CF4E06C1CEA11541DBF36
:106820001CEA135594EA0C0F95EA0C0F00F0A7F838
:10683000A4EB050481EA030E52EA03354FEA013165
:1068400000F088804FEA03334FF0805545EA131378
:1068500043EA12634FEA022245EA111545EA106540
:106860004FEA00260EF000419D4208BF964244F1D7
:10687000FD0404F5407402D25B084FEA3202B61AF6
:1068800065EB03055B084FEA32024FF480104FF4CA
:10689000002CB6EB020E75EB030E22BFB61A75463E
:1068A00040EA0C005B084FEA3202B6EB020E75EBD1
:1068B000030E22BFB61A754640EA5C005B084FEA39
:1068C0003202B6EB020E75EB030E22BFB61A754606
:1068D00040EA9C005B084FEA3202B6EB020E75EB11
:1068E000030E22BFB61A754640EADC0055EA060ED2
:1068F00018D04FEA051545EA16754FEA06164FEA15
:10690000C30343EA52734FEAC2025FEA1C1CC0D1C0
:1069100011F4801F0BD141EA00014FF000004FF04D
:10692000004CB6E711F4801F04BF01430020B4F10E
:10693000FD0C88BFBCF5E06F3FF6AFAEB5EB030CC6
:1069400004BFB6EB020C5FEA500C50F1000041EBC3
:10695000045170BD0EF0004E4EEA113114EB5C0490
:10696000C2BFD4EB0C0541EA045170BD41F4801163
:106970004FF0000E013C90E645EA060E8DE60CEA6B
:10698000135594EA0C0F08BF95EA0C0F3FF43BAF88
:1069900094EA0C0F0AD150EA01347FF434AF95EA3F
:1069A0000C0F7FF425AF104619462CE795EA0C0F23
:1069B00006D152EA03353FF4FDAE1046194622E7F0
:1069C00050EA410618BF52EA43067FF4C5AE50EACA
:1069D00041047FF40DAF52EA43057FF4EBAE12E7BA
:1069E0004FF0FF3C06E000BF4FF0010C02E000BF9B
:1069F0004FF0010C4DF804CD4FEA410C7FEA6C5C7E
:106A00004FEA430C18BF7FEA6C5C1BD001B050EA20
:106A1000410C0CBF52EA430C91EA030F02BF90EA0B
:106A2000020F0020704710F1000F91EA030F58BFCA
:106A3000994208BF90422CBFD8176FEAE37040F02C
:106A4000010070474FEA410C7FEA6C5C02D150EACA
:106A5000013C07D14FEA430C7FEA6C5CD6D152EA85
:106A6000033CD3D05DF8040B704700BF844610464A
:106A700062468C461946634600E000BF01B5FFF749
:106A8000B7FF002848BF10F1000F01BD4DF808ED19
:106A9000FFF7F4FF0CBF012000205DF808FB00BFEA
:106AA0004DF808EDFFF7EAFF34BF012000205DF844
:106AB00008FB00BF4DF808EDFFF7E0FF94BF012091
:106AC00000205DF808FB00BF4DF808EDFFF7CEFF92
:106AD00094BF012000205DF808FB00BF4DF808EDD1
:106AE000FFF7C4FF34BF012000205DF808FB00BFA2
:106AF0004FEA410C7FEA6C5C02D150EA013C0AD1BA
:106B00004FEA430C7FEA6C5C02D152EA033C02D1AB
:106B10004FF0000070474FF0010070474FEA41020C
:106B200012F5001215D211D56FF47873B3EB6252DF
:106B300012D94FEAC12343F0004343EA505311F006
:106B4000004F23FA02F018BF404270474FF0000098
:106B5000704750EA013005D111F0004008BF6FF0D6
:106B6000004070474FF00000704700BF4A0011D24C
:106B700012F5001211D20DD56FF47873B3EB625297
:106B80000ED44FEAC12343F0004343EA505323FAA3
:106B900002F070474FF00000704750EA013002D118
:106BA0004FF0FF3070474FF00000704780F000401A
:106BB00002E000BF81F0004142001FBF5FEA4103D5
:106BC00092EA030F7FEA226C7FEA236C6AD04FEAD5
:106BD0001262D2EB1363C1BFD2184140484041401A
:106BE000B8BF5B42192B88BF704710F0004F40F4CC
:106BF000000020F07F4018BF404211F0004F41F4E8
:106C0000000121F07F4118BF494292EA030F3FD0B3
:106C1000A2F1010241FA03FC10EB0C00C3F12003C6
:106C200001FA03F100F0004302D5494260EB400055
:106C3000B0F5000F13D3B0F1807F06D340084FEAC0
:106C4000310102F10102FE2A51D2B1F1004F40EBB5
:106C5000C25008BF20F0010040EA0300704749001D
:106C600040EB0000013A28BFB0F5000FEDD2B0FABA
:106C700080FCACF1080CB2EB0C0200FA0CF0AABFDD
:106C800000EBC25052421843BCBFD040184370477B
:106C900092F0000F81F4000106BF80F40000013281
:106CA000013BB5E74FEA41037FEA226C18BF7FEA58
:106CB000236C21D092EA030F04D092F0000F08BF9A
:106CC0000846704790EA010F1CBF0020704712F081
:106CD0007F4F04D1400028BF40F00040704712F1C0
:106CE00000723CBF00F50000704700F0004343F025
:106CF000FE4040F4000070477FEA226216BF08465B
:106D00007FEA23630146420206BF5FEA412390EA1D
:106D1000010F40F4800070474FF0000304E000BF13
:106D200010F0004348BF40425FEA000C08BF7047C4
:106D300043F0964301464FF000001CE050EA010288
:106D400008BF70474FF000030AE000BF50EA01029D
:106D500008BF704711F0004302D5404261EB41018A
:106D60005FEA010C02BF84460146002043F0B643AF
:106D700008BFA3F18053A3F50003BCFA8CF2083AD4
:106D8000A3EBC25310DB01FA02FC634400FA02FCDD
:106D9000C2F12002BCF1004F20FA02F243EB0200E4
:106DA00008BF20F00100704702F1200201FA02FC46
:106DB000C2F1200250EA4C0021FA02F243EB020039
:106DC00008BF20EADC7070474FF0FF0C1CEAD0527D
:106DD0001EBF1CEAD15392EA0C0F93EA0C0F6FD03E
:106DE0001A4480EA010C400218BF5FEA41211ED01C
:106DF0004FF0006343EA501043EA5111A0FB013108
:106E00000CF00040B1F5000F3EBF490041EAD371DC
:106E10005B0040EA010062F17F02FD2A1DD8B3F158
:106E2000004F40EBC25008BF20F00100704790F0C7
:106E3000000F0CF0004C08BF49024CEA502040EA19
:106E400051207F3AC2BFD2F1FF0340EAC2507047DF
:106E500040F400004FF00003013A5DDC12F1190F1D
:106E6000DCBF00F000407047C2F10002410021FA8F
:106E700002F1C2F1200200FA02FC5FEA310040F1A7
:106E8000000053EA4C0308BF20EADC70704792F020
:106E9000000F00F0004C02BF400010F4000F013A58
:106EA000F9D040EA0C0093F0000F01F0004C02BF53
:106EB000490011F4000F013BF9D041EA0C018FE7C2
:106EC0000CEAD15392EA0C0F18BF93EA0C0F0AD0C8
:106ED00030F0004C18BF31F0004CD8D180EA0100EE
:106EE00000F00040704790F0000F17BF90F0004F87
:106EF000084691F0000F91F0004F14D092EA0C0F69
:106F000001D142020FD193EA0C0F03D14B0218BFFB
:106F1000084608D180EA010000F0004040F0FE4041
:106F200040F40000704740F0FE4040F440007047DD
:106F30004FF0FF0C1CEAD0521EBF1CEAD15392EA5C
:106F40000C0F93EA0C0F69D0A2EB030280EA010C4C
:106F500049024FEA402037D04FF0805343EA1111E5
:106F600043EA10130CF000408B4238BF5B0042F143
:106F70007D024FF4000C8B4224BF5B1A40EA0C00E8
:106F8000B3EB510F24BFA3EB510340EA5C00B3EB1A
:106F9000910F24BFA3EB910340EA9C00B3EBD10F08
:106FA00024BFA3EBD10340EADC001B0118BF5FEA5A
:106FB0001C1CE0D1FD2A3FF650AF8B4240EBC25083
:106FC00008BF20F0010070470CF0004C4CEA502044
:106FD0007F32C2BFD2F1FF0340EAC250704740F493
:106FE00000004FF00003013A37E792F0000F00F085
:106FF000004C02BF400010F4000F013AF9D040EA03
:107000000C0093F0000F01F0004C02BF490011F496
:10701000000F013BF9D041EA0C0195E70CEAD1538E
:1070200092EA0C0F08D142027FF47DAF93EA0C0F75
:107030007FF470AF084676E793EA0C0F04D14B0259
:107040003FF44CAF08466EE730F0004C18BF31F00B
:10705000004CCAD130F000427FF45CAF31F0004305
:107060007FF43CAF5FE700BF4FF0FF3C06E000BF9E
:107070004FF0010C02E000BF4FF0010C4DF804CDC1
:107080004FEA40024FEA41037FEA226C18BF7FEAD1
:10709000236C11D001B052EA530C18BF90EA010FD3
:1070A00058BFB2EB030088BFC81738BF6FEAE17062
:1070B00018BF40F0010070477FEA226C02D15FEAFE
:1070C000402C05D17FEA236CE4D15FEA412CE1D06A
:1070D0005DF8040B704700BF844608466146FFE731
:1070E0000FB5FFF7C9FF002848BF10F1000F0FBD13
:1070F0004DF808EDFFF7F4FF0CBF012000205DF80C
:1071000008FB00BF4DF808EDFFF7EAFF34BF012090
:1071100000205DF808FB00BF4DF808EDFFF7E0FF29
:1071200094BF012000205DF808FB00BF4DF808ED7A
:10713000FFF7D2FF94BF012000205DF808FB00BFDD
:107140004DF808EDFFF7C8FF34BF012000205DF8BF
:1071500008FB00BF53B94AB9002908BF00281CBF6B
:107160004FF0FF314FF0FF3000F06CB9ADF1080C7B
:107170006DE904CE00F006F8DDF804E0DDE9022355
:1071800004B070472DE9F047089E0D4604468E4630
:10719000002B40F082808A42174646D9B2FA82F22A
:1071A0004AB1C2F1200105FA02F320FA01F1974039
:1071B00041EA030E94404FEA1748230CBEFBF8FC4B
:1071C000B9B208FB1CEE43EA0E430CFB01F09842F7
:1071D0000AD9FB180CF1FF3580F01681984240F275
:1071E0001381ACF1020C3B441B1AA4B2B3FBF8F0C0
:1071F00008FB103344EA034400FB01F1A14209D922
:107200003C1900F1FF3380F00181A14240F2FE8081
:1072100002383C44641A40EA0C4000211EB1D440BC
:107220000023C6E90043BDE8F08702B9FFDEB2FAE9
:1072300082F2002A4FD1CB1B4FEA174E1FFA87F874
:107240000121B3FBFEFC250C0EFB1C3345EA034574
:1072500008FB0CF3AB4207D97D190CF1FF3002D2C9
:10726000AB4200F2E7808446ED1AA3B2B5FBFEF014
:107270000EFB105543EA054408FB00F8A04507D96A
:107280003C1900F1FF3302D2A04500F2D780184626
:10729000A4EB080440EA0C40C0E78B4208D9002E5A
:1072A00000F0AF800021C6E900050846BDE8F08780
:1072B000B3FA83F100294BD1AB4202D3824200F2F0
:1072C000B780841A65EB030301209E46002EAAD0E6
:1072D000C6E9004EA7E7C2F1200C01FA02F397407D
:1072E00020FA0CF04FEA174E21FA0CFC1843BCFBB5
:1072F000FEF1050C0EFB11CC1FFA87F845EA0C4590
:1073000001FB08F3AB4204FA02F409D97D1901F13B
:10731000FF3C80F08B80AB4240F2888002393D44D4
:10732000EB1A85B2B3FBFEF00EFB103345EA0345C2
:1073300000FB08F3AB4207D97D1900F1FF3C71D285
:10734000AB426FD902383D44EB1A40EA014178E77D
:10735000C1F1200C8B4022FA0CF71F4320FA0CF4E9
:1073600005FA01F34FEA174E25FA0CF51C43230CDE
:10737000B5FBFEF91FFA87F80EFB195543EA0545E0
:1073800009FB08FAAA4502FA01F200FA01F308D94A
:107390007D1909F1FF3047D2AA4545D9A9F1020963
:1073A0003D44A5EB0A05A4B2B5FBFEF00EFB10555B
:1073B00044EA054400FB08F8A04507D93C1900F150
:1073C000FF352DD2A0452BD902383C4440EA094074
:1073D000A4EB0804A0FB02894C45C6464D4619D3D0
:1073E00016D05EB1B3EB0E0264EB050404FA0CFC9C
:1073F000CA404CEA0202CC40C6E900240021BDE8A4
:10740000F087314630460EE7AC46EDE6184601E718
:107410004345E6D2B8EB020E69EB07050138E0E719
:107420002846D3E760468FE78146BAE7614677E7AB
:1074300008464BE7ACF1020C3D4415E702383C44EA
:1074400026E700BF704700BF08B54FF6FE7107483A
:1074500004F0B4FC064B074A0749002808BF1A4647
:10746000BDE80840054804F0E7BE00BF6D1D0020E0
:1074700074AF02086CAF020879AF02088C1C0020C0
:107480002DE9F043CD1D85B0ED08064600AF0C4652
:107490000023ED00A34224D2E946ADEB050D694679
:1074A00003F1100800229C420ADDF05CA0F1200CE0
:1074B000BCF15F0F9EBF02F1010C88545FFA8CF2A1
:1074C00001339845EFD1381D04F032FE391D0748CD
:1074D00004F09EFE381D04F0E5FD1FFA88F3CD464A
:1074E000D8E71437BD46BDE8F08300BF8C1C0020F0
:1074F00010B59EB003AB83E80700134B9DF8104016
:10750000012119702CB91149114804F077FE1EB001
:1075100010BD122004F0C3FE9DF9143000932246E2
:10752000BDF912300B4907A801F0B2F907A90848C4
:1075300004F078FE03982146FFF7A2FF00211220F5
:1075400004F0ADFEE3E700BF680E00208EAF020836
:107550008C1C00209CAF0208F0B5022387B00622E5
:1075600077484FF4E13104F077FB7649744804F032
:1075700045FE7549724804F041FE00F067F904F0D9
:107580009AFE724B1860724804F04AFC70B1704861
:1075900004F04AFC6F4B704A7049002808BF1A4635
:1075A000674804F049FE6E4804F034FD6D496448B4
:1075B00004F024FE03A86C4904F026FD039A6B49ED
:1075C0005F4804F039FE03A804F06CFD03A8684985
:1075D00004F004FD039A6749594804F02DFE03A8FE
:1075E00004F060FD03A8644904F0F2FC039A6349C7
:1075F000534804F021FE03A804F054FD03A8604999
:1076000004F0BAFC039A5F494D4804F015FE03A844
:1076100004F048FD03A85C4904F0C4FC039A5B49EC
:10762000474804F009FE03A804F03CFD584BD3E999
:10763000004541A3D3E9002320462946FFF7E8F897
:1076400006460F4620462946FFF790FA0146514864
:10765000414D404C04F067FB002814BF28462046EB
:10766000324600903B464C49354804F0E5FD4B4B13
:107670004B4819781E8804F065FB3246002814BF79
:107680002B46234647492E4804F0D6FD464B474833
:107690001E88314604F065FB3246002814BF2B4695
:1076A00023464349264804F0C7FD424B4248198807
:1076B0004E1DC9B204F064FB3246002814BF2B46AD
:1076C00023463E491E4804F0B7FD3D4B3D481E8809
:1076D000314604F064FB3246002814BF2B46234693
:1076E0003949174804F0A8FD384B394819781E88E5
:1076F00004F073FB3246002814BF2B46234635495D
:107700000F4804F099FD3449344804F09AFB344999
:10771000324804F09EFB4FF6FE71304804F04EFBF9
:107720003049002814BF2A462246054804F084FD4B
:1077300007B0F0BDAFF300800000000080842E4150
:107740008C1C0020CCAF0208F0AF02086C0E0020A9
:10775000831D002074AF02086CAF020827B0020836
:10776000DC1C002046B00208341D002050B0020886
:10777000281D002062B00208101D002071B0020810
:10778000EC1C002087B00208041D00209EB00208F7
:1077900008000020781D0020B7B002081200002069
:1077A000791D0020DAB00208640E00207A1D002046
:1077B00001B10208660E00207B1D002021B10208E5
:1077C000100000207C1D002043B10208140000209E
:1077D0007D1D002069B10208F17400086D1D0020B4
:1077E0004974000879AF020813B5144A144C1068A4
:1077F00051686B4603C308216A46204604F0FCFA30
:10780000014638B9204604F0D9FA4FF47A700EF0E8
:10781000A7F9F0E70B490C4804F00EFD4FF47A701D
:107820000EF09EF9092004F03FFDB0FA80F14909FD
:10783000092004F034FD02B010BD00BF9BB1020866
:107840006D1D002088B102088C1C002008B50121A4
:10785000122004F00DFD0121082004F009FD012192
:10786000092004F005FD0021122004F018FD00217C
:10787000082004F014FD0121092004F010FD01216D
:10788000152004F0F5FC0121084604F0F1FC01216B
:10789000152004F004FD0120002104F000FDBDE8E6
:1078A00008404FF47A700EF05BB903F041BB03F06F
:1078B00044BB704770B5002386B0CDE904334FF068
:1078C000B0420F4DD16C41F00201D164D26C0393F0
:1078D00002F002024FF48056009201A92846CDE939
:1078E0000163009A10F08CFC3146284610F0A8FD88
:1078F00031460446284610F02FFD204606B070BDE4
:10790000000400480D2070474FF0B04382B0DA6C9D
:107910000243DA64DB6C18400190019B02B07047AF
:107920002DE9F04186B01422002101A800F04CFBA3
:107930000220FFF7E9FF144D144F0420FFF7E4FF86
:107940004FF4807601230024CDE9016301A90323CC
:107950002846CDE903434FF4005810F051FC01A92B
:107960003846CDF8048010F04BFC2246414638469C
:1079700010F06CFD28462246314610F067FD204687
:1079800006B0BDE8F08100BF0004004800080048D0
:10799000032810B50ED8012810D868B902460B4844
:1079A0004FF4807110F052FD002209484FF400514D
:1079B00010F04CFD002010BD0122F0E7002203482A
:1079C0004FF4807110F042FD0122EEE70004004800
:1079D00000080048022070470020704701207047CF
:1079E00010B59AB04822002108A800F0EDFA18223C
:1079F000002102A800F0E8FA11F0E4FB4FF0B042D9
:107A00000024D2F8903023F01803C2F89030D2F856
:107A1000003423F4C06343F40073C2F80034D2F896
:107A20000034119403F4C06301934FF48072019BFE
:107A30000C922E234022089381230B930D92012355
:107A4000B02208A8CDE90E3410931292139411F0CD
:107A50000BFD08B103F096FC4F23022102A8CDE9EB
:107A60000234CDE90444CDE9064411F09DFF08B18C
:107A700003F088FC1AB010BD13B50378082B11D899
:107A8000DFE803F0128287108E8E051092000479D1
:107A900020460CF0FFFE20460CF0D0FE00212046D0
:107AA0000CF000FF02B010BD00200CF0F3FE012826
:107AB00039D101200CF0EEFE012804D001200EF097
:107AC00065FC00283DDC02200CF0E4FE0128E9D032
:107AD00002200EF05BFC0028E4DD012201A9022057
:107AE0000EF01EFB02200CF0D5FE0028F0D1022083
:107AF0000EF02AFC00283FD19DF8041002200CF063
:107B000009FEE5E7012201A900200EF009FB002093
:107B10000CF0C0FE044630B90EF016FC48B99DF8D2
:107B200004100CF0F7FD00200EF030FC0028E9DC1A
:107B3000BFE70128F7D19DF8041020460EF05CFB4A
:107B4000F1E7012201A910460EF0EAFA01200CF03B
:107B5000A1FE0028B2D101200EF0F6FB28B99DF855
:107B6000041001200CF0D6FDA8E70128A6D19DF84D
:107B700004100EF041FBA1E70128A9D19DF80410E3
:107B800002200EF039FBA3E716F09EFF05F042FC41
:107B900088E7074B1B68002B84D04068984781E733
:107BA00040680EF08FFC7DE740680EF041F979E700
:107BB000EC64002030B5284B284A9A6085B00EF05E
:107BC000B5FCFFF70DFF4FF0B0430B209A6C42F06D
:107BD00004029A649A6C02F004020392039A9A6C6B
:107BE00042F001029A649B6C002203F001031146EB
:107BF0000293029B0FF002F90B200FF031F90EF007
:107C000055FC0DF055FF0CF0FFFE00240146054623
:107C1000234603220120CDE900440EF0C3F9234698
:107C2000032229460220CDE900440EF0BBF90CF0F6
:107C300099FF06F02DFAE5B228460CF02BFE10B99C
:107C400028460CF0FBFD0134032CF4D105B0BDE84F
:107C500030400EF00FBC00BF00ED00E000600008F7
:107C60000EF016BCF7B5FFF7A5FF4FF0B0432E4E50
:107C7000DA6C2E4C42F00202DA64DB6C03F0020391
:107C80000193019B08F074FC294B341B14274743D4
:107C900000251C44BD4223D302F04AFAFFF70AFE36
:107CA00098B3244804F05AFB234B24481A68244B09
:107CB000196804F053FB23480EF0F6F904F0EEFDCA
:107CC000012824D0022824D010B91F480EF0ECF966
:107CD0001E4C0EF0DDFB2378EBB902F02BFAF8E72F
:107CE0006A46042160190DF055FF694632460423A7
:107CF00012F801CB11F8010B844518BF02F8010CF2
:107D0000013BF5D104350436C4E71148CAE71148F0
:107D1000DCE71148DAE70CF003FE0028D9D0002098
:107D20000EF00AF9D5E700BFB403002000000020E0
:107D300038E60208A3B1020884000020B9B10208A5
:107D40009C000020C9B10208DDB10208700E0020BD
:107D5000AEB10208E9B10208F4B10208054808B55D
:107D60000823036012F0EEF918B1BDE8084003F0F3
:107D700009BB08BD885D00204FF0B04307B55A6EBF
:107D800042F001025A665B6E002203F00103019388
:107D900011463220019B0FF031F8322003B05DF81C
:107DA00004EB0FF05DB80000024B9868024BC04333
:107DB0001860704700280040740E0020014B1868BE
:107DC000704700BF740E0020034B044A9B68106884
:107DD000DB43181A704700BF00280040740E0020D3
:107DE000034B187810B1034B9868C043704700BF2D
:107DF000710E0020002800400320704708B501469E
:107E00004FF47A720023C003490CFFF7A3F908BDB1
:107E10004FF47A72A0FB0223D00B40EA4340704734
:107E200010B5074B074C0122DA654FF480712046EC
:107E300011F0B8FE4FF0FF332363002010BD00BFE8
:107E400000280040D45F002002460021014812F0C3
:107E5000BEB800BFD45F002002460121014812F0E5
:107E6000B6B800BFD45F002010B58CB02C22002122
:107E7000044601A800F0A8F8FFF7D2FF0C4B1868E1
:107E800000230444089306934FF00053E443079300
:107E9000084802944FF48073012201A90B9311F05A
:107EA00097FF08B103F06EFA00200CB010BD00BFC0
:107EB000740E0020D45F00200C4B70B59C68064601
:107EC00002210B4812F08AF8E44300221219C2F38F
:107ED0000E044FF47A71A4FB014540F10003E40B5A
:107EE000D00B348040EA434070BD00BF0028004002
:107EF000D45F00200148002112F070B8D45F002048
:107F00000148012112F06AB8D45F0020F8B5114E83
:107F10003578E5B9104C2A4629464FF0FF372846F8
:107F2000276302F06FFFFFF77BFF4FF4807120465D
:107F300011F038FE2046276311F0F4FF2A46022193
:107F4000204612F044F8FFF72FFF01233370002082
:107F5000F8BD00BF710E0020D45F002015F074BB87
:107F600010B5064C0221204612F038F80221421CBE
:107F70002046BDE8104012F02AB800BFD45F0020B0
:107F800070B50D4D0D4C641BA4100026A64209D1FE
:107F90000B4D0C4C22F058FF641BA4100026A64287
:107FA00005D170BD55F8043B98470136EEE755F80A
:107FB000043B98470136F2E720E6020820E6020873
:107FC00020E602082CE6020802440346934200D150
:107FD000704703F8011BF9E72DE9F04788B0002B43
:107FE0001F461446B8BF03F10043129A109DDDF8F6
:107FF0004CA0B6BF1F4600232D231370149B23F003
:108000002008B8F1460F05D0B8F1450F00D1013571
:10801000022300E0032307AA049206AACDE902A2E4
:10802000CDE9003522463B4600F0DEFCB8F1470FB3
:10803000064602D1119BDB0722D5B8F1460F06EBAD
:10804000050910D13378302B0AD1002200232046B5
:108050003946FEF71BFD18B9C5F10105CAF80050F5
:10806000DAF8003099440022002320463946FEF712
:108070000DFD08B1CDF81C903022079B4B4507D36E
:10808000079B159A9B1B3046136008B0BDE8F0872C
:10809000591C07911A70F0E7F7B503460029B8BFDD
:1080A000494203F8022BB4BF2D222B22092942702A
:1080B0002ADD0DF10704A4460A27A6460A4691FBCD
:1080C000F7F607FB16153035632A04F1FF340EF876
:1080D000015C3146F1DC3031AEF1020504F8011CDF
:1080E000441C294661450AD30DF10902A2EB0E0298
:1080F000654588BF00221344181A03B0F0BD11F87B
:10810000012B04F8012FEDE7302330318370C1706B
:10811000031DF1E72DE9F04F91B00C46DDF86880C2
:1081200016461F46054601F031FA036809931846C2
:10813000FEF726F800230E93D8F800300A90073394
:1081400023F0070303F1080294F81890D4F800B064
:10815000C8F80020D3E90023C4E91223D4E9128A25
:108160002AF000430B930B999C4B4FF0FF32404693
:10817000FEF7BEFC70BB994B0B994FF0FF324046A7
:10818000FEF798FC30BB0022002340465146FEF724
:1081900087FC10B12D2384F84330914B9148B9F1FD
:1081A000470F94BF98468046032323612BF00403B6
:1081B00023604FF0000A009733460FAA2146284655
:1081C00000F0D2F9013040F08F804FF0FF3011B055
:1081D000BDE8F08F4246534640465146FEF788FCC4
:1081E00040B1BAF1000FBCBF2D2384F843307E4864
:1081F0007E4BD4E763685A1C09F0DF0142D10623A5
:108200006360002206920EAACDE904920DAA4BF4F7
:10821000806303920DF13302CDE90132236063687C
:1082200000934246534628460B91FFF7D5FE0B9923
:10823000472980460D9908D1C81C02DB6368994222
:1082400040DDA9F102095FFA89F9B9F1650F1FD87C
:1082500001394A4604F150000D91FFF71DFF0E9AB7
:108260001318012A8246236102DC2268D20701D555
:10827000013323619DF83330002B9CD02D2384F8EB
:10828000433098E74729BCD1002BBAD10123B7E787
:10829000B9F1660F18D1002963680BDD216113B9AC
:1082A0002268D00702D501330B442361A1654FF04A
:1082B000000ADFE713B92268D20701D50233F4E7D9
:1082C0000123F2E74FF067090E9B994205DB236813
:1082D0002161D807EAD54B1CE7E70029D4BFC1F1DB
:1082E000020201221344E0E723685A0507D42369F8
:1082F000424631462846B84701302BD165E7B9F1EF
:10830000650F40F2DC80D4E9120100220023FEF761
:10831000BDFB002833D0364A012331462846B847F2
:1083200001303FF452AFDDE90D239A4202DB2368AE
:10833000D8070FD5DDE9092331462846B847013073
:108340003FF443AF4FF0000804F11A090E9B013BC4
:10835000434509DC23689B0700F10181E0680F9B1E
:108360009842B8BF184632E701234A4631462846AC
:10837000B84701303FF429AF08F10108E6E70D9B4B
:10838000002B37DC1A4A012331462846B847013012
:108390003FF41BAFDDE90D23134302D12368D90756
:1083A000D8D5DDE9092331462846B84701303FF4E6
:1083B0000CAF4FF0000904F11A0A0D9B5B424B45CC
:1083C00001DC0E9B94E70123524631462846B8470C
:1083D00001303FF4FAAE09F10109EEE7FFFFEF7F4C
:1083E00035B3020839B3020841B302083DB30208AD
:1083F0001AE002080E9AA36D9A42A8BF1A46002AF4
:10840000914637DC4FF0000B29EAE97904F11A02B2
:10841000D4F858A0AAEB09035B4533DCDDE90D2352
:108420009A423BDB2368DA0738D40E9A0D99A2EB07
:108430000A03A2EB01099945A8BF9946B9F1000FBB
:1084400034DC4FF0000829EAE97904F11A0ADDE981
:108450000D239B1AA3EB090343457FF77BAF012351
:10846000524631462846B84701303FF4AEAE08F1D7
:108470000108ECE71346314642462846B84701302A
:10848000C0D1A2E60123314628460B92B8470130FD
:108490003FF49BAE0B9A0BF1010BB9E7DDE9092321
:1084A00031462846B8470130BFD18EE64B4608EB2F
:1084B0000A0231462846B8470130C2D185E60E9AF5
:1084C000012A01DCDB0737D5012342463146284625
:1084D000B84701303FF479AEDDE90923314628463B
:1084E000B84701303FF471AED4E9120100220023F5
:1084F000FEF7CCFAD8B90E9B08F10102013B3146D8
:108500002846B84701300ED15FE601234A4631467E
:108510002846B84701303FF458AE08F101080E9BD9
:10852000013B4345F1DC534604F15002E1E64FF0D4
:10853000000804F11A09F2E701234246DFE70123AC
:108540004A4631462846B84701303FF43EAE08F16E
:108550000108E3680F995B1A4345F0DCFEE64FF033
:10856000000804F11909F4E72DE9F0471646994689
:108570008A680B69DDF820809342B8BF13463360E8
:1085800091F8432007460C460AB101333360236853
:10859000990642BF336802333360256815F006053B
:1085A00006D104F1190AE36832689B1AAB4226DC53
:1085B00094F84320131E226818BF012392062BD47F
:1085C00004F1430249463846C04701301ED02368B3
:1085D000E568326803F00603042B08BFAD1AA368F0
:1085E00022690CBF25EAE57500259342C4BF9B1A9A
:1085F000ED1800261A34B5421AD1002008E00123F4
:10860000524649463846C047013003D14FF0FF304B
:10861000BDE8F0870135C6E7E1185A1C302081F823
:108620004300224494F8451082F843100233C7E710
:108630000123224649463846C0470130E6D001367C
:10864000D9E700002DE9FF470C469146277E0C999B
:10865000782F80469A4604F1430207D8622F0AD841
:10866000002F00F0D880582F00F0A38004F14206BC
:1086700084F842703AE0A7F16303152BF6D801A005
:1086800050F823F0DD860008F18600086D860008AA
:108690006D8600086D8600086D860008F18600086A
:1086A0006D8600086D8600086D8600086D860008DE
:1086B000FD87000821870008DF8700086D86000815
:1086C0006D8600081F8800086D8600082187000855
:1086D0006D8600086D860008E78700080B681A1D84
:1086E0001B680A6004F1420684F842300123A3E0CB
:1086F000256808682E0600F104030AD505680B609A
:10870000002D03DA2D236D4284F843305E480A239E
:1087100019E015F0400F05680B6018BF2DB2EFE7A8
:108720000B682568181D0860280601D51D6802E041
:108730006906FBD51D8854486F2F0CBF08230A23F8
:10874000002184F843106668A660002EA2BF21684D
:1087500021F0040121600DB9002E4DD01646B5FB65
:10876000F3F103FB1157C75D06F8017D2F46BB42AD
:108770000D46F4D9082B0BD12368DF0708D52369F0
:1087800061689942DEBF302306F8013C06F1FF36EE
:10879000921B2261CDF800A04B4603AA2146404619
:1087A000FFF7E2FE01304CD14FF0FF3004B0BDE8DE
:1087B000F087354884F8457023680E681F0656F820
:1087C000045B0E6014D5D90744BF43F02003236037
:1087D0001DB9236823F0200323601023B0E723682A
:1087E00043F0200323607823284884F84530E3E7EA
:1087F0005E0648BFADB2E6E71646BBE70B682668E3
:1088000060691D1D0D6035061B6801D5186002E00A
:108810007106FBD51880002323611646BAE70B6862
:108820001A1D0A601E68626800213046FDF7B0FC20
:1088300008B1801B606063682361002384F84330C3
:10884000A8E72369324649464046D0470130ABD0BD
:1088500023689B0713D4E068039B9842B8BF18466F
:10886000A4E70123324649464046D04701309BD019
:108870000135E36803995B1AAB42F2DCEBE70025B4
:1088800004F11906F5E700BF45B3020856B3020824
:108890000EB400B59CB01DAB029006906FF0004185
:1088A000094807910491094953F8042B0591006880
:1088B000019302A901F0A8FA029B00221A701CB0D1
:1088C0005DF804EB03B07047A00000200802FFFF32
:1088D0002DE9F74F03690C69A3420746C0F2818076
:1088E000013C01F1140800F1140505EB8403019328
:1088F00058F8243055F8242001339A424FEA840B6B
:1089000008EB8409B2FBF3F631D34FF0000E40467A
:10891000AC46F24650F8042B93B206FB03E34FEA51
:10892000134E9BB2AAEB0303120CDCF800A006FB6B
:1089300002E213FA8AF34FEA124E1FFA82FADCF8C7
:108940000020CAEB124202EB23429BB243EA0243ED
:1089500081454CF8043B4FEA224ADBD255F80B30F4
:108960002BB9019B043B9D421A462ED33C613846ED
:1089700001F057F8002824DB013628464FF0000CA0
:1089800058F8042BD0F800E093B2ACEB0303120CC0
:1089900013FA8EF3C2EB1E4202EB23429BB243EA70
:1089A0000243C14540F8043B4FEA224CE8D255F857
:1089B000242005EB840322B9043B9D421A460AD3C6
:1089C0003C61304603B0BDE8F08F1268043B002ADA
:1089D000CCD1013CC7E71268043B002AF0D1013C2E
:1089E000EBE70020EEE700002DE9F04F446A99B074
:1089F00016461F46CDE90467DDF8948005463CB96C
:108A0000102000F0C7FDC0E9014468620460C46042
:108A10006B6A196851B15A684A60012393408B60B0
:108A2000284600F009FE6B6A00221A603B1EB9BF9F
:108A300023F0004305930023C8F80030DDF81490BC
:108A4000A74BBCBF0122C8F8002033EA090319D1A3
:108A5000249A42F20F731360C9F31303334300F0F7
:108A60006D85269B53B99F4B23E09F4B039308339F
:108A7000269A1360039819B0BDE8F08F994B0393C1
:108A80000333F5E7DDE90434CDE90C34DDE90C010D
:108A900000220023FDF7FAFF804660B1249A0123EB
:108AA0001360269B002B00F04685904B269A13609E
:108AB000013B0393DEE716AB019317AB0093284607
:108AC000DDE90C2301F03EF8C9F30A548346002C7B
:108AD0007ED00D9BCDF84C80C3F31303DDE90C0170
:108AE00043F07F5141F44011A4F2FF34804B002247
:108AF000FDF7ACFB74A3D3E90023FDF75FFD74A37E
:108B0000D3E90023FDF7A4FB064620460F46FDF7F8
:108B1000EBFC71A3D3E90023FDF750FD02460B46A1
:108B200030463946FDF794FB06460F46FDF7F6FF43
:108B300000228246002330463946FDF7B1FF48B196
:108B40005046FDF7D1FC32463B46FDF79FFF08B982
:108B50000AF1FF3ABAF1160F57D8664B03EBCA0376
:108B6000D3E90023DDE90C01FDF79AFF00284ED080
:108B70000AF1FF3A00230F93169B1C1B631E0993F7
:108B800045BFC4F101030693002300234CBF0993A2
:108B90000693BAF1000F3CDB099BCDF838A0534493
:108BA000099300230A93229B092B00F2B580052B21
:108BB000C4BF043B2293229BA3F10203CCBF002439
:108BC0000124032B00F2B480DFE803F02D987AA48F
:108BD000DDE916431C4404F23243202BC3BFC3F12A
:108BE000400304F2124009FA03F3C3F12003C6BFA5
:108BF00026FA00F0184306FA03F0FDF765FC01239E
:108C0000A1F1F871013C139370E70123B3E70F90D2
:108C1000B2E7069BA3EB0A030693CAF100030A938B
:108C200000230E93BFE700230B93239B002B00F33D
:108C300082804FF00109CDF820904B46CDF88C9002
:108C40006E6A00227260042202F114009842716878
:108C500077D9284600F0BCFC6B6A30601B68039330
:108C6000089B0E2B00F2EE80002C00F0EB80BAF196
:108C7000000F7ADD1F4A0AF00F0302EBC303D3E9AA
:108C800000341AF4807FCDE910344FEA2A145CD006
:108C9000194BDDE90C01D3E90823FDF7B9FDCDE956
:108CA000040104F00F040327134E002C4FD1DDE91B
:108CB0001023DDE90401FDF7ABFDCDE904016EE011
:108CC0000123B1E7AFF3008061436F63A787D23F11
:108CD000B3C8608B288AC63FFB799F501344D33FAB
:108CE0000000F07F70B3020867B302081BE00208BF
:108CF0000000F83FA0B3020878B3020800230B93EA
:108D0000239B0AEB030909F10103012B0893B8BF68
:108D1000012395E70123F2E70124002322930B941A
:108D20004FF0FF390022CDF820901223239287E7DD
:108D300001230B93F4E7DDF88C90CDF820904B469F
:108D40007EE70131716052007EE70227ACE7E10760
:108D500008D5DDE91001D6E90023FDF72FFCCDE9A8
:108D600010010137641008369FE700F0A580CAF1B2
:108D70000004A44BA44E04F00F0203EBC203D3E99A
:108D80000023DDE90C01FDF719FCCDE904012411F4
:108D900000230227002C40F08480002B8DD10F9BF4
:108DA000002B00F08B80DDE90434CDE91034DDE9DF
:108DB0001001964B0022FDF773FE00287ED0089B21
:108DC000002B7BD0B9F1000F38DDDDE91001904BAD
:108DD0000022FDF7F3FBCDE904010AF1FF3801376A
:108DE0004C463846FDF780FBDDE90423FDF7E6FB42
:108DF000884B0022FDF72CFAA1F15076CDE9100145
:108E00001196002C5DD1DDE90401834B0022FDF7B2
:108E10001DFA02460B46CDE90423109A3346FDF7AE
:108E20005DFE002840F09782DDE90401109A06F10A
:108E30000043FDF735FE002840F08B82DDE90C345D
:108E4000CDE90434179B002BC0F25181BAF10E0F0B
:108E500000F34D816B4B03EBCA03D3E90034CDE93A
:108E60000634239B002B80F2DB80089B002B00F351
:108E7000D78040F06D82684B0022DDE90601FDF7E6
:108E80009DFBDDE90423FDF71FFE089C2646002814
:108E900040F04382039F312307F8013B0AF1010AA6
:108EA0003FE2E20705D5D6E90023FDF787FB01374E
:108EB0000123641008366DE7022770E7089CD0464E
:108EC0008FE703994F4B214412910B9903EBC40395
:108ED000DDE9106753E90223002946D04F490020FD
:108EE000FDF796FC3B463246FDF7B0F9CDE910019F
:108EF000039FDDE90401FDF711FE0446FDF7F4FAD6
:108F000002460B46DDE90401FDF7A0F930340246C4
:108F10000B46CDE9042307F8014BDDE91023FDF7EB
:108F2000BFFD002865D1DDE9042338490020FDF7A5
:108F30008DF9DDE91023FDF7B3FD002840F0B68080
:108F4000129B9F423FF47AAFDDE91001304B0022C3
:108F5000FDF734FB2E4BCDE910010022DDE90401C1
:108F6000FDF72CFBCDE90401C3E730463946FDF798
:108F700025FBCDE91001129B039C1493DDE904014C
:108F8000FDF7CCFD1590FDF7AFFA02460B46DDE983
:108F90000401FDF75BF9159B303304F8013B129B8C
:108FA0009C4206460F464FF0000224D11B4BDDE9E0
:108FB0001001FDF74DF902460B4630463946FDF7E4
:108FC0008DFD002871D1DDE9102314490020FDF743
:108FD0003DF902460B4630463946FDF761FD002853
:108FE0003FF42CAF149F7B1E149317F8013C302BD9
:108FF000F8D0C24649E0064BFDF7E0FACDE904019E
:10900000BCE700BFA0B3020878B302080000F03F3D
:109010000000244000001C40000014400000E03F1D
:10902000DDE90489039FDDE9062340464946FDF753
:10903000EFFBFDF773FD0446FDF756FADDE9062365
:10904000FDF7BCFA04F130060B460246494640469D
:10905000FDF7FCF807F8016B039E089BBE1BB342AB
:1090600038D102460B46FDF7F3F8DDE906238046CA
:109070008946FDF733FD58BBDDE9062340464946E6
:10908000FDF704FD08B1E10722D42846594600F057
:10909000D3FA00233B70249B0AF101001860269B41
:1090A000002B3FF4E7AC1F60E4E427463B461F4635
:1090B00013F8012D392A07D1039A9A42F7D103995F
:1090C000302208F101080A701A7801321A7090E70C
:1090D000D046EBE7A14B0022FDF770FA00220023F7
:1090E00080468946FDF7D2FC00289CD0CDE70B9A3C
:1090F000002A00F0CD80229A012A00F3AF80139A53
:10910000002A00F0A78003F233430A9C069F069AC8
:109110001A440692099A01211A442846099200F03D
:109120002EFB0646002F0CDD099B002B09DDBB4200
:10913000069AA8BF3B46D21A0692099AFF1AD31A7A
:1091400009930A9BF3B10B9B002B00F0A580002C28
:1091500010DD31462246284600F0B6FB5A4601464D
:109160000646284600F014FB59468046284600F083
:1091700063FAC3460A9B1A1B04D05946284600F0DE
:10918000A3FB83460121284600F0F9FA0E9B002B31
:10919000044640F383801A460146284600F094FBBB
:1091A000229B012B04467CDD4FF00008236904EB71
:1091B0008303186900F095FAC0F12000099B184458
:1091C00010F01F0000F08E80C0F12003042B40F34C
:1091D0008780C0F11C00069B03440693099B03444F
:1091E00007440993069B002B05DD59461A4628467D
:1091F00000F0B8FB8346099B002B05DD21461A468B
:10920000284600F0AFFB04460F9B002B6CD0214694
:10921000584600F006FC002866DA002359460A2268
:10922000284600F020FA0B9B0AF1FF3A8346002BF8
:1092300000F08B81314600230A22284600F013FA01
:10924000B9F1000F064600F39180229B022B40F3F8
:109250008D8051E0169BC3F1360356E7089B5C1ED8
:109260000A9BA342BFBF0A9B0A94E21A0E9BB6BF99
:109270009B181C1B0E93089BB8BF0024002BB9BF82
:10928000069B089A069F089BBCBF9F1A00233EE7D7
:109290000A9C069F0B9E45E70A9A6EE7229B012BCC
:1092A00019DC049BBBB9059BC3F313039BB9059B56
:1092B00023F000431B0D1B0583B1069B013306936E
:1092C000099B013309934FF001080E9B002B7FF49B
:1092D0006DAF012072E74FF00008F6E79846F4E71B
:1092E00080D018461C3076E7089B002B38DC229B88
:1092F000022B35DDDDF82090B9F1000F0DD12146AC
:109300004B460522284600F0AEF901460446584671
:1093100000F087FB00283FF7BDAD239B039F6FEA5A
:10932000030A4FF000082146284600F085F9002E78
:109330003FF4ABAEB8F1000F05D0B04503D04146C5
:10934000284600F079F93146284600F075F99CE688
:1093500000242646E1E7C24626469BE5000024405D
:109360000B9BDDF82090002B00F0F680002F05DD30
:1093700031463A46284600F0F5FA0646B8F1000FA5
:1093800055D07168284600F023F932690232074649
:10939000920006F10C010C3000F00CF90122394664
:1093A000284600F0DFFA039B01330893039B4B44EC
:1093B0000A93049B03F00103B04609930646089BF9
:1093C0002146013B58460493FFF782FA03463033A7
:1093D0000690414658460B9300F023FB32468146E7
:1093E0002146284600F038FBC2680B9B074602BBAB
:1093F0000146584600F015FB0B9B024639462846AD
:10940000CDE90B3200F018F9229B0C9A089F43EA31
:109410000201099B0B430B9B0DD1392B29D0B9F1CC
:10942000000F01DD069B3133049A13707BE7304651
:10943000B9E70122E2E7B9F1000F06DB229941EA20
:109440000909099959EA010120D1002AECDD5946A0
:1094500001222846089300F085FA2146834600F051
:10946000E0FA0028089B02DCDED1DA07DCD5392BD4
:10947000D8D1049A392313703B461F46013B17F895
:10948000012C392A50D001321A704CE7002A03DD32
:10949000392BEED00133C7E7089A0A9902F8013C4C
:1094A0008A422AD0594600230A22284600F0DBF8D7
:1094B000B04583464FF000034FF00A02414628466C
:1094C00007D100F0D0F880460646089B0133089388
:1094D00075E700F0C8F83146804600230A22284686
:1094E00000F0C1F80646F0E7B9F1000F039ACCBFCF
:1094F0004F46012717444FF00008594601222846DD
:10950000089300F02FFA2146834600F08AFA0028DB
:10951000B2DC02D1089BDB07AED43B461F4613F8F2
:10952000012D302AFAD0FEE6039A9A42A5D10AF11B
:10953000010A312379E7134BFFF7BBBA269B002BB7
:109540007FF493AA104BFFF7B4BAB9F1000F03DC14
:10955000229B022B3FF7D0AE039F21465846FFF7D0
:10956000B7F900F1300307F8013B039ABA1A9145A5
:10957000BADD594600230A22284600F074F88346D3
:10958000EBE700BF1AE0020867B302080048704723
:10959000F4010020024B0146186800F07FBB00BFB9
:1095A000A0000020024B0146186800F029BB00BF54
:1095B000A00000200A44914200F1FF3300D170471F
:1095C00010B511F8014B03F8014F9142F9D110BDCC
:1095D00070B5466A04460D463EB91020FFF7DAFF23
:1095E000C0E9016660620660C660666AF36883B1BE
:1095F000636ADB6853F82500B8B9012101FA05F662
:10960000721D9200204600F0ECFA60B1C0E90156EC
:109610000EE021220421204600F0E3FA636AF060A4
:10962000DB68002BE4D1002070BD026843F82520E0
:109630000023C0E90333F7E770B5466A05460C46D8
:109640003EB91020FFF7A6FFC0E901666862066018
:10965000C6603CB16B6A6268DB6853F82210216017
:1096600043F8224070BD2DE9F0410E690746984647
:109670000C4601F1140000230568A9B202FB018128
:109680004FEA114C2D0C02FB05C589B2013301EBE9
:1096900005419E4240F8041B4FEA1548ECDCB8F146
:1096A000000F1BD0A368B34212DC61683846013159
:1096B000FFF78EFF2269023204F10C010546920089
:1096C0000C30FFF777FF21463846FFF7B5FF2C46F1
:1096D00004EB86030136C3F8148026612046BDE8FA
:1096E000F081020C12040346CAB90304102013F0DF
:1096F0007F4F04BF1B02083013F0704F04BF1B01E3
:10970000043013F0404F04BF9B000230002B05DBF8
:1097100013F0804F00F1010008BF202070470020A7
:10972000E5E70368024613F007000BD0D90722D4FF
:10973000980749BF5B089B08012013605CBF13605A
:109740000220704799B209B91B0C102013F0FF0FCB
:1097500004BF1B0A0830190704BF1B09043099070E
:1097600004BF9B080230D90703D45B0800F1010055
:1097700003D013607047002070472020704710B559
:109780000C460121FFF724FF01224461026110BD54
:109790002DE9F04F15460A692B699A42B8BF0B466E
:1097A0000C46BCBF2C461D462769D5F81090A3680F
:1097B000616807EB0906B342B8BF013185B0FFF716
:1097C00007FF00F1140101EB86080B460022434518
:1097D0001DD304F1140305F1140203EB870702EB18
:1097E000890302933B1B153B23F00303043304F16D
:1097F0001505AF4238BF04230193029B03929342A5
:1098000008D8002E5ADC066105B0BDE8F08F43F899
:10981000042BDCE7B2F800A0BAF1000F24D004F169
:10982000140E89464FF0000C5EF8045BD9F800B0C6
:10983000ABB21FFA8BFB0AFB03B34FEA154BD9F807
:10984000005063444FEA154C0AFB0BC505EB13456A
:109850009BB243EA0543774549F8043B4FEA154C70
:10986000E2D8019B41F803C0039BB3F80290043295
:10987000B9F1000F20D00B6804F1140C8E464FF0A4
:10988000000ABCF80050BEF802B009FB05B5AA44B6
:109890009BB243EA0A434EF8043B5CF8043BBEF833
:1098A00000501B0C09FB035303EB1A4367454FEAB7
:1098B000134AE6D8019D4B5104319EE758F8043D08
:1098C000002BA0D1013E9CE72DE9F843154612F08C
:1098D000030206460F4607D0214C013A002354F8F4
:1098E0002220FFF7C0FE0746AD1035D0746A3CB9A0
:1098F0001020FFF74FFEC0E9014470620460C460AD
:10990000D6F82480D8F808404CB940F2712130468E
:10991000FFF735FF0023C8F80800044603604FF046
:109920000009EB070AD5394622463046FFF730FFDB
:10993000394680463046FFF77FFE47466D100BD014
:10994000206838B9224621463046FFF721FF2060C3
:10995000C0F800900446E4E73846BDE8F88300BF4D
:1099600068B402082DE9F0470C464968236903EB07
:109970006218A368074691464FEA621A08F1010689
:10998000B3423FDB3846FFF723FE0023054600F1D4
:10999000140100F110021846534536DB20692AEA0B
:1099A000EA7A04F1140319F01F0901EB8A0103EBB1
:1099B000800C2ED0C9F1200E8A460022186800FAC9
:1099C00009F002434AF8042B53F8042B9C4522FA71
:1099D0000EF2F3D8ACEB0403153B23F0030304337E
:1099E00004F11500604588BF0423CA500AB108F18C
:1099F0000206013E38462E612146FFF71DFE28462D
:109A0000BDE8F08701315B00BAE742F8040F01338B
:109A1000C2E7043953F8042B41F8042F9C45F9D8C8
:109A2000E7E70A6903460069801A30B50DD114339F
:109A3000143103EB820401EB820154F8045D51F808
:109A4000042D954202D004D3012030BDA342F4D3AB
:109A5000FBE74FF0FF30F8E72DE9F84F0C460646DC
:109A6000114620461746FFF7DCFF051E08D12946A0
:109A70003046FFF7ADFD0123C0E90435BDE8F88F9E
:109A8000A4BF3B46274630467968A6BF1C46002542
:109A90000125FFF79DFD3E69C560256907F11401A9
:109AA00004F1140900F1140E07F1100201EB860C09
:109AB00009EB8505F246002759F8043B52F804BF2C
:109AC0001FFA83F817FA8BF71B0CA7EB0808C3EBF8
:109AD0001B4303EB28431FFA88F81F144D4548EA3F
:109AE00003434AF8043BE7D82B1B153B23F0030341
:109AF00004331534A54238BF0423194473449E46E9
:109B00000D4665450ED30CF10302521A22F00302F2
:109B100003398C4538BF00221A4452F8043D7BB10A
:109B20000661ABE755F8048B17FA88F4221402EBB0
:109B30001842A4B244EA02444EF8044B1714E0E77A
:109B4000013EEAE72DE9F34101211C46DDE9086504
:109B50009046FFF73DFDC4F31303C4F30A540746D0
:109B60002CBB0193B8F1000326D068460093FFF7A1
:109B7000D8FD0099F0B1019AC0F1200302FA03F375
:109B80000B43C2407B610192019BBB61002B14BF60
:109B9000022101213961C4B1A4F233440444C0F16B
:109BA000350034602860384602B0BDE8F08143F4E7
:109BB0008013D6E77961E7E701A8FFF7B2FD019BC3
:109BC0007B61012139612030E5E707EB8103A0F2D9
:109BD000324030601869FFF784FDC0EB4111296005
:109BE000E1E738B502FB01F5294600F057F80446D5
:109BF00018B12A460021FEF7E7F9204638BD0000DB
:109C000038B50546002945D051F8043C0C1F002BFF
:109C1000B8BFE41800F034FA1F4A1368104633B98D
:109C2000636014602846BDE8384000F02FBAA342B4
:109C30000BD921686218934204BF1A685B6863609D
:109C400004BF521822600460ECE71A465B680BB14F
:109C5000A342FAD911685018A0420BD120680144E0
:109C6000501883421160DDD118685B68536001446D
:109C70001160D7E702D90C232B60D3E720682118A5
:109C80008B4204BF19685B68636004BF09182160D8
:109C90005460C7E738BD00BF780E0020F8B5CD1C72
:109CA00025F0030508350C2D38BF0C25002D064680
:109CB00001DBA94203D90C2333600020F8BD00F07A
:109CC000DFF921490A6814469CB9204F3B6823B943
:109CD0002146304600F098F938602946304600F0B9
:109CE00093F9431C23D10C233360304600F0CEF9A6
:109CF000E3E723685B1B17D40B2B03D923601C44B9
:109D0000256004E06368A2420CBF0B6053603046DC
:109D100000F0BCF904F10B00231D20F00700C21A6B
:109D2000CCD01B1AA350C9E722466468CCE7C41CF8
:109D300024F00304A042E3D0211A304600F064F975
:109D40000130DDD1CFE700BF780E00207C0E00206F
:109D50002DE9F0478E689E4282460C4690461F468B
:109D600038D88A8912F4906F32D025680969A5EB3A
:109D70000109656905EB450505EBD57501334B44D4
:109D80006D109D4238BF1D46530531D52946FFF75A
:109D900085FF064650B90C23CAF80030A38943F06A
:109DA0004003A3814FF0FF30BDE8F08721694A46A8
:109DB000FFF700FCA38923F4906343F08003A381A1
:109DC000266165614E44A5EB09052660A5603E4607
:109DD000BE4200D93E4632462068414600F036F980
:109DE000A36822689B1B3244A36022600020DBE74B
:109DF0002A4600F051F906460028E1D12169504673
:109E0000FFF7FEFEC7E700002DE9F04F98468B896B
:109E10001B069DB007460D4614460ED50B6963B967
:109E20004021FFF73BFF2860286120B90C233B60ED
:109E30004FF0FF30D1E040236B61002309932023D2
:109E40008DF82930CDF80C803023DFF8A8818DF80B
:109E50002A304FF0010923469A4613F8012B0AB124
:109E6000252AF9D1BAEB040B0BD05B4622462946D2
:109E70003846FFF76DFF013000F0AA80099A5A4476
:109E800009929AF80030002B00F0A28000234FF0D6
:109E9000FF32CDE905230AF1010A049307938DF8F7
:109EA00053301A935446052214F8011B5148FCF70D
:109EB0006FF9049AD8B9D00644BF20238DF85330E7
:109EC000110744BF2B238DF853309AF800302A2B0A
:109ED00015D0079A544600204FF00A0C214611F87D
:109EE000013B303B092B4ED9B0B1079214E0A0EBF7
:109EF000080309FA03F313430493A246D2E7039B32
:109F0000191D1B680391002BBBBF5B4242F002028C
:109F100007930793B8BF049223782E2B0CD1637854
:109F20002A2B35D1039B1A1D1B680392002BB8BF47
:109F30004FF0FF3302340593DFF8C8A021780322E5
:109F40005046FCF725F940B14023A0EB0A0003FA84
:109F500000F0049B03430134049314F8011B2648CA
:109F60008DF828100622FCF713F9002838D0234B6F
:109F70001BBB039B073323F0070308330393099BA1
:109F80003344099367E70CFB02320C460120A5E736
:109F900000230134059319464FF00A0C204610F8AF
:109FA000012B303A092A03D9002BC5D00591C3E70C
:109FB0000CFB012104460123F0E703AB00932A4682
:109FC0000F4B04A93846FEF7A5F8421C0646D6D129
:109FD000AB895B063FF52CAF09981DB0BDE8F08F4B
:109FE00003AB00932A46064B04A93846FEF72AFB2A
:109FF000EBE700BF74B402087EB4020815810008C4
:10A00000519D00087AB4020838B5064D0023044675
:10A0100008462B6000F07EF8431C02D12B6803B188
:10A02000236038BD945D002082B001B901A942B11E
:10A030004BB113780B601278101E18BF012002B0CC
:10A0400070471046FBE76FF00100F8E7884210B553
:10A0500001EB020402D98442234607D8431EA142E1
:10A0600008D011F8012B03F8012FF8E7024401464C
:10A070008A4200D110BD13F8014D02F8014DF7E7F7
:10A08000014800F03CB800BF9C5D0020014800F092
:10A0900037B800BF9C5D0020F8B5074614460E4651
:10A0A00021B9BDE8F8401146FFF7F8BD22B9FFF726
:10A0B000A7FD25462846F8BD00F023F8A0420FD2A0
:10A0C00021463846FFF7EAFD05460028F2D0314622
:10A0D0002246FFF76FFA31463846FFF791FDE9E770
:10A0E0003546E7E70346084641B1FF2A04D98A22EC
:10A0F0001A604FF0FF3070470A70012070477047B8
:10A10000704751F8043C181F002BBCBF0B58C018F7
:10A1100070470000044A05491368002B08BF0B462E
:10A120001844106018467047800E002030740020DC
:10A13000FDF712BAFDF758BB0D4885461EF0F2FF39
:10A140000C480D490D4A002302E0D458C450043392
:10A15000C4188C42F9D30A4A0A4C002301E0136068
:10A160000432A242FBD3FDF70BFFFDF77BFDFEE7B8
:10A1700000FC002000000020480E002038E6020805
:10A18000480E00203074002000F05AB80368074AD7
:10A19000934206D1DA69D20606D510221A6201F07E
:10A1A00079BB034A9342F5D0704700BF008000405E
:10A1B000003801404FF0B0434FF0FF319A6B996384
:10A1C000DA6BD9639A6B00229A63D86BDA63186CE6
:10A1D0001964186C1A64586C5964586C5A64986AFB
:10A1E0009962986A9A62D86AD962D86ADA62186BF8
:10A1F0001963196B1A635A6C42F001025A645A6C63
:10A2000022F001025A64D3F8902042F48032C3F85D
:10A210009020D3F8902022F48032C3F89020BFF32E
:10A220004F8F0549054BCA6802F4E0621343CB60C7
:10A23000BFF34F8F00BFFDE700ED00E00400FA051B
:10A240004FF0B0434FF0FF319A6B9963DA6BD963EB
:10A250009A6B00229A63D86BDA63186C1964186CD5
:10A260001A64586C5964586C5A64986A9962986A6E
:10A270009A62D86AD962D86ADA62186B1963196B64
:10A280001A635A6C42F001025A645A6C22F00102BD
:10A290005A64D3F8902042F48032C3F89020D3F867
:10A2A000902022F48032C3F89020FEE7FEE7FEE71C
:10A2B000FEE7704770470CF04FB9000001480FF0FF
:10A2C000ADBC00BFD45F0020014810F086B900BFCC
:10A2D000885D002001480FF069BE00BFD45F0020F8
:10A2E00001480DF031BF00BF0864002001480DF0A7
:10A2F0002BBF00BF0C60002001480DF025BF00BF40
:10A300006C60002001480DF01FBF00BF18630020E3
:10A3100010B5044C204610F08DFA2046BDE81040E0
:10A32000FFF734BF78630020704701200EF094B827
:10A3300002200EF091B804200EF08EB808200EF026
:10A340008BB810200EF088B80E4BDA68920602D552
:10A3500020200EF081B8DA68500601D54020F8E7D9
:10A36000DA68110601D58020F3E7DA68D20502D554
:10A370004FF48070EDE7DB689B0502D54FF4007069
:10A38000E7E7704700080058134BDA68510503D51A
:10A390004FF480600EF060B8DA68120502D54FF411
:10A3A0000060F7E7DA68D00402D54FF48050F1E797
:10A3B000DA68910402D54FF40050EBE7DA685204F2
:10A3C00002D54FF48040E5E7DB681B0402D54FF46B
:10A3D0000040DFE7704700BF0008005810B5044C8C
:10A3E000204610F027FA2046BDE81040FFF7CEBE09
:10A3F0008862002001480EF0CDB900BFBC6100208A
:10A4000001480EF04EBE00BFBC61002001480DF0B7
:10A4100067BA00BFC85E00204FF0B04382B0DA6C6C
:10A420000243DA64DB6C18400190019B02B0704774
:10A430001FB514284FF00003CDE902330C460CD8A9
:10A44000092812D90A380A280FD8DFE800F07B0E55
:10A450000E0E0E820E0E74116D00FE2800F0838029
:10A46000FF2800F08280FD287AD06FF0030059E0C9
:10A470003F4A404B0193137843F0010313703E4869
:10A480003E4A4FF00043C0E900233D4B04221B68C5
:10A490008360426100230122C2614FF48051062291
:10A4A0000383C0E90333C0E90933C0E90C128376A2
:10A4B00080F8203080F82C30836380F83C30C3640F
:10A4C0000CF096F808B100F05DFF2B480CF038FC5A
:10A4D00008B100F057FF0023274801A9CDE9023356
:10A4E0000CF008FA08B100F04DFF23480CF05CFBBB
:10A4F00008B100F047FF0A211F480CF09DF91E48E3
:10A500000CF000FC1C480CF0F2F91E4B019A80B2D2
:10A510009A42208004BF00EB4000208016480CF0D7
:10A52000A5FB002004B010BD114A174B019313780E
:10A5300043F00203A2E70E4A144B0193137843F051
:10A5400004039BE70A4A124B0193137843F0080374
:10A5500094E7074A0F4B0193137843F010038DE7FC
:10A560000D4B01938BE70D4BFBE7064BF9E700BF63
:10A57000840E002004000008A45D00200024014097
:10A5800070020020004000B80800000C100000100D
:10A59000400000180008002C001000B0002000B49B
:10A5A00070477047014B1878704700BF7502002054
:10A5B000014B1878704700BF7402002010B50446A4
:10A5C00086B01422002101A8FDF7FEFC22685E4B34
:10A5D0009A4240F08E804FF0B0435C4C1A6E42F4C9
:10A5E00000721A661B6E03F400730093009B2378BD
:10A5F000DA0708D5132000F079FAB0F1904F7AD13C
:10A600000120FFF709FF23789B0708D5142000F0ED
:10A610006DFAB0F1904F76D10120FFF7FDFE23785F
:10A62000580708D5122000F061FAB0F1904F72D1AE
:10A630000120FFF7F1FE2378190708D50A2000F062
:10A6400055FAB0F1904F6ED10120FFF7E5FE237867
:10A65000DA0608D50F2000F049FAB0F1904F6AD120
:10A660000120FFF7D9FE00234FF0030CCDE902C310
:10A670002378DB0709D5132000F03DFA0190132061
:10A6800000F034FA01A90DF0BBFD2378980709D535
:10A69000142000F030FA0190142000F027FA01A9EC
:10A6A0000DF0AEFD2378590709D5122000F023FAEA
:10A6B0000190122000F01AFA01A90DF0A1FD2378F3
:10A6C0001A0709D50A2000F016FA01900A2000F0B6
:10A6D0000DFA01A90DF094FD2378DB0609D50F20B2
:10A6E00000F009FA01900F2000F000FA01A90DF026
:10A6F00087FD06B010BD132000F0F8F9144B984206
:10A7000081D102207DE7142000F0F0F9104B98422F
:10A7100085D1022081E7122000F0E8F90C4B984225
:10A7200089D1022085E70A2000F0E0F9084B984221
:10A730008DD1022089E70F2000F0D8F9044B984210
:10A7400091D102208DE700BF00240140840E00203B
:10A750000004004838B50268324B9A4260D14FF08D
:10A76000B042314C136E23F4007313662378DD0777
:10A770000ED5132000F0BAF90546132000F0BBF9FE
:10A78000014628460DF0E8FD237823F001032370ED
:10A79000237898070ED5142000F0A8F90546142058
:10A7A00000F0A9F9014628460DF0D6FD237823F0E4
:10A7B00002032370237859070ED5122000F096F972
:10A7C0000546122000F097F9014628460DF0C4FD19
:10A7D000237823F00403237023781A070ED50A2068
:10A7E00000F084F905460A2000F085F90146284664
:10A7F0000DF0B2FD237823F0080323702378DB06E5
:10A800000ED50F2000F072F905460F2000F073F905
:10A81000014628460DF0A0FD237823F01003237095
:10A8200038BD00BF00240140840E00200A4B00F117
:10A830001002C1781970817859704178997010F8B8
:10A84000041BD970904203F10403F2D1034B102290
:10A850001A800020704700BF880E0020760200207A
:10A860002DE9F04F3B4EDFF8F4C085B002AF04464F
:10A8700090469A46384AF26000233046C6E900C343
:10A88000C6E909333D8ED7F834B0B36089467361A9
:10A89000F3620CF04DFC304A7A6008B100F072FDB2
:10A8A0002C480CF068FC08B100F06CFD2B48042229
:10A8B000C6E900020022B260002C39D17461002286
:10A8C0007B682448F3600121C6E90912F2620CF0AA
:10A8D0002FFC08B100F056FD2B071DBF25F00F041B
:10A8E0001034A4B22C46A300073323F00703ADEBCA
:10A8F000030D02AE224600213046FDF765FB2A46D5
:10A9000051463046FEF756FEFF23009311485B4642
:10A9100022463146B9F1000F14D10CF083FE70B914
:10A920000C480CF028FC80B90C37BD46BDE8F08F10
:10A93000012C0CBF20224022C6E90482BFE76FF041
:10A940000600F1E70CF0FCFEE9E700F01BFD00203B
:10A95000EAE700BFC85E0020980E002000180058EB
:10A9600021F00803102B01D0202911D10A4B00F14E
:10A970001002C1781970817859704178997010F877
:10A98000041BD970904203F10403F2D100207047F8
:10A990006FF01F00704700BF980E002007B5CDE98B
:10A9A00000120022034611461046FFF759FF03B07C
:10A9B0005DF804FB70B586B004460D4616460021CE
:10A9C000102202A8FDF700FB074B08491A8802A8CD
:10A9D000FEF7F0FDCDE90056234602AA0021012032
:10A9E000FFF73EFF06B070BD76020020880E002003
:10A9F00070B586B004460D4616460021102202A806
:10AA0000FDF7E2FA074B08491A8802A8FEF7D2FDC3
:10AA10000121CDE90056234602AA0846FFF720FF90
:10AA200006B070BD76020020880E002008B5FFF742
:10AA300097FFC0B208BD08B510230A461946FFF7B4
:10AA4000ADFFC0B208BD70B51446054618460E46A7
:10AA5000FFF7ECFE23019BB2324619462846FFF76A
:10AA6000A9FFC0B270BD70B51446054618460E4623
:10AA7000FFF7DCFE23019BB2324619462846FFF75A
:10AA8000B7FFC0B270BD0000034B00221A70034B29
:10AA900001221A70704700BF8072002004730020EA
:10AAA000024B53F8203003B118477047A816002016
:10AAB000002201230342D1B202F101020DD02F295D
:10AAC0000ED8084B084800221A70082300F83130CD
:10AAD00000EBC10041600BF0D5BC5B009BB2E9E725
:10AAE000704700BF8072002028160020000900F582
:10AAF00090108002704700F00F030120984080B250
:10AB0000704700002F2870B503461CD81424444316
:10AB10000D4A03F00F060125B54015511019022505
:10AB200000240129C0E9024501D1416001E000296A
:10AB3000FBD01846FFF7DAFF1421BDE8704001FB97
:10AB400003210DF05DBB70BDA80E00202F2870B54D
:10AB500004460D4624D8FFF7C9FF012304F00F0176
:10AB600003FA01F106460DF0F7FB0E4A142325B94E
:10AB700003FB04230221996004E0012D0AD103FBA9
:10AB800004239D60142101FB04213046BDE8704080
:10AB90000DF036BB022DF5D103FB04230021EAE7BB
:10ABA00070BD00BFA80E00202F2808B50A46034636
:10ABB00015D851B9FFF79AFF012103F00F0399400F
:10ABC00089B2BDE808400DF041BC012907D1FFF76B
:10ABD0008DFF03F00F0301FA03F399B2F1E708BD0B
:10ABE0002F2808B5014600D908BDFFF77FFF0123D4
:10ABF00001F00F0103FA01F189B20DF021FC0038D8
:10AC000018BF0120F0E700002F28F8B5054600F234
:10AC10008280414E1422424300F00F040123B018F9
:10AC2000A340B35003294FF00202C2602DD801297E
:10AC30002ED94FF4881242602846FFF757FFC768A5
:10AC400093FAA3F2B2FA82F2510003228A403A4008
:10AC500093FAA3F3B3FA83F35B0022FA03F3012B15
:10AC60004FF014021ED0022B1CD0142101FB0561F1
:10AC70000DF0C6FAD4B90620224602210CF0BEF827
:10AC80000620BDE8F8400CF0EBB80439012906D9DC
:10AC9000142202FB05624FF444115160CCE74FF4DB
:10ACA0000412C8E702FB05629360DEE7012C06D1BF
:10ACB0000720002202210CF0A1F80720E1E7022C76
:10ACC00006D10820002221460CF098F80820D8E789
:10ACD000032C06D10920002202210CF08FF8092054
:10ACE000CFE7042C06D10A20002202210CF086F8BE
:10ACF0000A20C6E7053C042C4FF000024FF0020189
:10AD000004D816200CF07AF81620BAE729200CF0A7
:10AD100075F82920B5E7F8BDA80E0020044B00F017
:10AD20000F0053F820200AB943F820100020704784
:10AD3000A81600202DE9F843174E184D184FDFF8DC
:10AD40006480DFF8649000240F2C05DDA4F1120369
:10AD5000052B01D91C2C15D157F8243093B97368F1
:10AD60002B60B3686B60F368AB603369EB602B7C7E
:10AD700043B198F800102046FFF746FF49462046A9
:10AD8000FFF7CCFF0134302C06F1140605F1140551
:10AD9000DAD1BDE8F88300BFA80E002068120020B9
:10ADA000A81600207802002089AA0008F8B5124EE3
:10ADB000124D134F00240F2C05DDA4F11203052BB7
:10ADC00001D91C2C10D157F824306BB933686B6053
:10ADD0007368AB60B368EB602046F3682B61FFF7E4
:10ADE00085FE29460DF00CFA0134302C06F11406CC
:10ADF00005F11405DFD1F8BD68120020A80E00206F
:10AE0000A816002000B58DB02C22002101A8FDF766
:10AE1000DBF81748174B03604FF080420023C0E96E
:10AE20000433C0E90723836083614FF48073436276
:10AE30000EF072FF08B100F0A5FA0D480FF090F87F
:10AE400008B100F09FFA4FF07C53002207930848A6
:10AE500008924FF4807301A9029206920B930EF0B0
:10AE6000B7FF08B100F08EFA00200DB05DF804FBCA
:10AE7000D45F00200028004007B5074B0DF1060005
:10AE80001B699847BDF806304FF47A7202FB003018
:10AE9000002103B05DF804FBFCB102087047704765
:10AEA00008B50A480FF0A1F8002211460C200BF05B
:10AEB000A5FF0C200BF0D4FF00220D2011460BF053
:10AEC0009DFFBDE808400D200BF0CABF7C020020AA
:10AED0007047000038B5054D002415F8013B0BB153
:10AEE000FFF7DEFF0134042CF7D138BD68170020CE
:10AEF00070B50D46144606460BF064FB30600BF04F
:10AF000067FB28600BF06AFB206070BDBFF34F8FBA
:10AF10000549064BCA6802F4E0621343CB60BFF3F5
:10AF20004F8F00BFFDE700BF00ED00E00400FA0511
:10AF300072B6EFF3108303607047036883F31088E1
:10AF400062B670477047000008B5044812F0DAFA9C
:10AF5000002814BF6FF00600002008BD6C17002009
:10AF6000084A0346002108481170042200F83320E3
:10AF7000064A00EBC3000C2101FB032343600BF0E6
:10AF800081BA00BF80720020AC170020101800208A
:10AF9000084A0346002108481170052200F83320B2
:10AFA000064A00EBC3000C2101FB032343600BF0B6
:10AFB00069BA00BF8072002084170020D4170020D7
:10AFC00083680BB1406818477047003818BF0120EC
:10AFD000704712F02BBA000037B503460C24104618
:10AFE0000E4A5C431519042B135598BF0C4AA960EF
:10AFF00094BF52F823400024FFF7E7FF4FF0FF31E2
:10B00000024600932046074B12F01AFA002814BF9C
:10B010006FF00600002003B030BD00BF1018002004
:10B020008CB5020861AF0008042898BF0D4B70B5BD
:10B0300098BF53F820400C4D4FF00C0303FB00F376
:10B0400005EB030688BF0024E8547260204612F026
:10B05000E3FA18B9204612F0A5FA08B16FF006001D
:10B0600070BD00BF8CB5020810180020042898BFDE
:10B070000B4A08B5034698BF52F82000094A4FF022
:10B080000C0101FB03234FF0000288BF00205A602F
:10B0900012F038FA002814BF6FF00600002008BD37
:10B0A0008CB502081018002037B503460C24104652
:10B0B0000E4A5C431519042B135598BF0C4AA9601E
:10B0C00094BF52F823400024FFF77FFF4FF0FF3179
:10B0D000024600932046074B12F0B2F9002814BF35
:10B0E0006FF00600002003B030BD00BFD417002071
:10B0F000A0B5020891AF0008042898BF0D4B70B5A9
:10B1000098BF53F820400C4D4FF00C0303FB00F3A5
:10B1100005EB030688BF0024E8547260204612F055
:10B120007BFA18B9204612F03DFA08B16FF006001C
:10B1300070BD00BFA0B50208D4170020042898BF36
:10B140000B4A08B5034698BF52F82000094A4FF051
:10B150000C0101FB03234FF0000288BF00205A605E
:10B1600012F0D0F9002814BF6FF00600002008BDCF
:10B17000A0B50208D417002008B5164B164A1A606D
:10B180005A680AB9154A5A6000220121C3E902210E
:10B19000C3E90422C3E906221A620E48102283F88A
:10B1A00042200DF0E9F908B100F0ECF8094800215F
:10B1B0000DF0B5FF08B100F0E5F8064800210DF0EC
:10B1C000D4FF08B100F0DEF8BDE808404FF40010ED
:10B1D0000DF0F0BFBC610020005800405C0870001A
:10B1E00010B50446FFF7C8FF014B01221A5510BDE8
:10B1F0004C18002010B5044604480DF00EFA08B1B2
:10B2000000F0C0F8024B00221A5510BDBC610020AE
:10B210004C18002008B5164B9942164B20D8164AF8
:10B220005A601B6813B313480DF0F7F911480DF07D
:10B23000A3F908B100F0A6F80E4800210DF06FFF49
:10B2400008B100F09FF80B4800210DF08EFF08B107
:10B2500000F098F8BDE808404FF400100DF0AABFC8
:10B26000064A914294BF064A064AD9E708BD00BF84
:10B27000A0860100BC610020DB0A301090D00300E2
:10B280009F0D70005C08700013B59DF81000002839
:10B2900014BF4FF000700020009049000A480DF0E4
:10B2A000D5F950B9084C20460DF034FF2028FAD1CA
:10B2B00005480DF032FF042803D16FF0030002B0FF
:10B2C00010BD0020FBE700BFBC61002013B54FF0AC
:10B2D0000070009049000A480DF00AFA50B9084C75
:10B2E00020460DF017FF2028FAD105480DF015FF74
:10B2F000042803D16FF0030002B010BD0020FBE76B
:10B30000BC6100207047000038B5054D002415F8D9
:10B31000013B0BB1FFF730FF0134042CF7D138BDEE
:10B320004C180020BFF34F8F0549064BCA6802F442
:10B33000E0621343CB60BFF34F8F00BFFDE700BF58
:10B3400000ED00E00400FA054FF0B04382B09A6CC3
:10B3500002439A649B6C18400190019B02B07047B5
:10B3600010B5064C0649802220460FF08DFF22685A
:10B37000136843F01003136010BD00BF8862002003
:10B380000862002008B5FFF7CDFF0000012810B5C6
:10B390000BD1094C0949802220460FF075FF226825
:10B3A000136843F01003136010BD0228FCD1BDE800
:10B3B0001040FFF7D5BF00BF78630020696400200C
:10B3C0002DE9F04385B0012B9DF830509DF8348075
:10B3D00014BF00274FF40057012D04460E463DD000
:10B3E000032D3ED0002D3FD00025013AD2B2022AD3
:10B3F0003CD8614B53F82290012C69D10420FFF70F
:10B40000A3FF2046FFF7A0FF002211460E200BF0FD
:10B41000F5FC0E200BF024FD584B594883F80180B1
:10B42000584B0561C0E900360C240023C0E902979F
:10B43000C0E90543C0E907334362B8F1000F1BD0F0
:10B44000B8F1020F01BF082383624FF40043836306
:10B450004B480FF093FEA0B1FFF764FF4FF4C065B7
:10B46000C3E74FF48065C0E7022A02D04FF000091D
:10B47000C2E74FF08059BFE7C0F828800FF04EFEBA
:10B48000E9E700213E480FF0DBFF01460028E3D149
:10B490003B480FF0F9FF0028DED139480FF0B5FF27
:10B4A0000028D9D10120FFF771FF4FF44013019A12
:10B4B0003348009319460FF035FF0028CCD14FF0E8
:10B4C000B042936843F40043936005B0BDE8F08355
:10B4D000022CFAD1294B2C4C83F802800420FFF770
:10B4E00033FF0120FFF730FF002211460B200BF045
:10B4F00085FC0B200BF0B4FC244B2561C4E900361D
:10B500000C2200232046C4E90297C4E90523C4E9BC
:10B510000833A36263660FF001FE014600289BD149
:10B5200020460FF08DFF0146002895D120460FF0F0
:10B53000ABFF002890D120460FF067FF00288BD189
:10B54000FFF70EFF4FF44013029304AB13E906001C
:10B5500020460FF0E7FE00287FF47EAF0C4AD2F8B9
:10B56000803043F08053C2F880302268936843F4FF
:10B5700080039360A3E700BFB4B50208881C0020D5
:10B58000786300200038014088620020008000407D
:10B59000000800582DE9F7439DF828909DF82C40AD
:10B5A000CDE9009416461D4680460F460C24FFF751
:10B5B00007FF074B04FB08F01C1801221A546760B0
:10B5C0002672657284F80A9003B0BDE8F08300BF6C
:10B5D000641C0020022810B5044605D107480FF06E
:10B5E0008DF828B1FFF79EFE012801D10448F6E747
:10B5F0000C20044B444300221A5510BD88620020E1
:10B6000078630020641C00200128F8B505460E462A
:10B610001F462BD194B2184A5278013A012A17D802
:10B6200016480FF0CEFA224614483B4631460FF03A
:10B63000E5FC044611480FF0EAFA84B9104B1B6888
:10B640000BB90020F8BD2146284698472046F9E767
:10B650000A4822460FF0D2FC04460028F6D0022CFD
:10B6600014BF6FF006006FF00500EBE70228E8D189
:10B67000044892B2EEE700BF881C002078630020E7
:10B680005418002088620020012802D1044800F0EC
:10B690004FBA022801D10348F9E76FF0060070475E
:10B6A000E0020020F4020020012807B50AD10A4870
:10B6B0000DF1070100F079FA50B16FF0060003B008
:10B6C0005DF804FB0228F8D104480DF10701F1E709
:10B6D0009DF80700F3E700BFE0020020F40200201D
:10B6E00070470000012802D1044800F0C5B90228C3
:10B6F00001D10348F9E76FF006007047E00200202F
:10B70000F4020020F8B5224D224F00240C23224AD7
:10B7100063439B5CCBB1022C1BD1204E3368DA69AA
:10B72000D103FCD4DA695202FCD51C480FF041FE6B
:10B7300033681A4810221A621A6822F010021A603E
:10B740000EF0FAFFF06F0CF0F5FB0134032CDDD1A5
:10B75000F8BD012CF9D108232B624FF480132B6222
:10B7600055E8003F43F0020345E80032002AF7D1D4
:10B7700057E8003F43F4800347E80032002AF7D13E
:10B78000074AD2F8803043F08063C2F88030DCE7AB
:10B790000038014008380140641C00208862002005
:10B7A0000008005873B50B4C0B4E4FF0FF35012DC0
:10B7B0000BD923784BB133780193A37A0093227A83
:10B7C000637A61680020FFF7FBFD0135022DEED1A1
:10B7D00002B070BD641C0020881C002002681D4B54
:10B7E0009A4270B5044615D10EF0A6FF1A4E0025F8
:10B7F00016F8011B022001350AF0DCFD802DF7D17F
:10B80000154916482A4600F046F913492A462046AB
:10B810000FF03AFD2268124B9A4216D120460EF0E4
:10B820008BFF104E002516F8011B012001350AF090
:10B83000C1FD802DF7D10B490B482A4600F02BF9AA
:10B8400008492A4620460FF01FFDBDE87040074812
:10B850000AF018BE0080004008620020F4020020B8
:10B860000038014069640020E00200205C1C0020D8
:10B870000268054B9A4205D1044B1B6813B10121A4
:10B8800008461847704700BF003801405418002090
:10B8900070470000F8B502682E4B9A4204461DD14D
:10B8A0000EF04AFF2C4B2D4F1B685D68C5F18005DB
:10B8B000ADB20026B5423FDC284929482A4600F0AF
:10B8C000EAF88022254920460FF0DEFC254B1A7845
:10B8D000012A03D100221A700AF026FB2268224BAB
:10B8E0009A4224D120460EF027FF204B204F1B68A0
:10B8F0005D68C5F18005ADB20026B54223DC1C4968
:10B900001C482A4600F0C7F88022194920460FF04B
:10B91000BBFC144B1A78012A03D100221A700AF0DA
:10B9200003FB154B1B6813B1012108469847BDE87E
:10B93000F84012480AF0A6BD17F8011B02200AF0D1
:10B9400039FD0136B6E717F8011B01200AF032FD78
:10B950000136D2E700800040086400200862002021
:10B96000F402002050180020003801401863002025
:10B9700069640020E0020020541800205C1C0020B4
:10B9800073B5314B00261E7003685A6A8DF8072084
:10B990002E4A9342054619D12D482E4C0FF01FFD1B
:10B9A0002D4926621523C4E9001320468023C4E9EB
:10B9B0000266C4E90436C4E906660CF049FA08B127
:10B9C000FFF7B0FCEC67A562FFF7CAFC2A68234BBF
:10B9D0009A421AD12248234C0FF001FD224A11232A
:10B9E000C4E90023204600238022C4E90233C4E9CD
:10B9F0000423C4E9063323620CF02AFA0028DFD1BD
:10BA0000EC670120A562FFF7C1FC2C680F4B9C423C
:10BA10000DD19DF8071002200AF0CCFC2B68A34240
:10BA200005D1124801220DF1070100F034F8104849
:10BA30000AF028FD0F4B1A781AB901221A700AF081
:10BA40006BFA02B070BD00BF807200200080004021
:10BA5000886200200864002008000240003801408D
:10BA6000786300201863002044000240F4020020A4
:10BA70005C1C002050180020C26803699A4282BFF3
:10BA800040681B180133981A704708B54168FFF7E2
:10BA9000F3FF081A08BD2DE9F743044601A816462E
:10BAA00088460AF0F9FC2046FFF7EFFF864228BFE0
:10BAB00006462046FFF7E9FFE3682569A268AB4226
:10BAC0009CBF636801335D1B814623682069AE42D9
:10BAD00002FB003013D872434146FDF76BFD23692A
